:100000000C942A000C9400000C9400000C94000046
:100010000C9400000C9400000C9400000C94000060
:100020000C9400000C9400000C9400000C94000050
:100030000C9400000C9400000C9400000C94000040
:100040000C9400000C9400000C9400000C94000030
:100050000C940000F894EE27ECBBF1E0FBBFEBBF83
:10006000E5BF8DE0A2E0BB27ED938A95E9F780E03C
:1000700098E0A0E6ED930197E9F7EFE5EDBFE8E042
:10008000EEBFC0E6D2E00C944500EFEFE4BBE0E049
:10009000E5BBEFEFEABBE0E0EBBB1FD0A0EDB7E0C4
:1000A00035D0AA9AAF9AAD98D998AC98DA98A99811
:1000B000DB98AB9AD89A1ED0A99ADB9AAB98D898BD
:1000C00019D0A998DB98AB98D898A89AAE9AA0EDC9
:1000D000B7E01CD002D0E1CFFFCFAA9AAF9AAD9A79
:1000E000D99AAC98DA98A998DB98AB98D898A89840
:1000F000AE980895A898AE98A0EDB7E007D0AA985A
:10010000AF98AD98D998AC9ADA9A0895109639F0CC
:10011000A89580ED97E00197F1F71197C9F7089539
:00000001FF
